{
  "_format": "hh-sol-artifact-1",
  "contractName": "DEX",
  "sourceName": "contracts/DEX.sol",
  "abi": [
    {
      "inputs": [],
      "stateMutability": "nonpayable",
      "type": "constructor"
    },
    {
      "anonymous": false,
      "inputs": [
        {
          "indexed": true,
          "internalType": "address",
          "name": "provider",
          "type": "address"
        },
        {
          "indexed": true,
          "internalType": "address",
          "name": "token0",
          "type": "address"
        },
        {
          "indexed": true,
          "internalType": "address",
          "name": "token1",
          "type": "address"
        },
        {
          "indexed": false,
          "internalType": "uint256",
          "name": "amount0",
          "type": "uint256"
        },
        {
          "indexed": false,
          "internalType": "uint256",
          "name": "amount1",
          "type": "uint256"
        },
        {
          "indexed": false,
          "internalType": "uint256",
          "name": "liquidity",
          "type": "uint256"
        }
      ],
      "name": "LiquidityAdded",
      "type": "event"
    },
    {
      "anonymous": false,
      "inputs": [
        {
          "indexed": true,
          "internalType": "address",
          "name": "provider",
          "type": "address"
        },
        {
          "indexed": true,
          "internalType": "address",
          "name": "token0",
          "type": "address"
        },
        {
          "indexed": true,
          "internalType": "address",
          "name": "token1",
          "type": "address"
        },
        {
          "indexed": false,
          "internalType": "uint256",
          "name": "amount0",
          "type": "uint256"
        },
        {
          "indexed": false,
          "internalType": "uint256",
          "name": "amount1",
          "type": "uint256"
        },
        {
          "indexed": false,
          "internalType": "uint256",
          "name": "liquidity",
          "type": "uint256"
        }
      ],
      "name": "LiquidityRemoved",
      "type": "event"
    },
    {
      "anonymous": false,
      "inputs": [
        {
          "indexed": true,
          "internalType": "address",
          "name": "previousOwner",
          "type": "address"
        },
        {
          "indexed": true,
          "internalType": "address",
          "name": "newOwner",
          "type": "address"
        }
      ],
      "name": "OwnershipTransferred",
      "type": "event"
    },
    {
      "anonymous": false,
      "inputs": [
        {
          "indexed": true,
          "internalType": "address",
          "name": "token0",
          "type": "address"
        },
        {
          "indexed": true,
          "internalType": "address",
          "name": "token1",
          "type": "address"
        }
      ],
      "name": "PoolCreated",
      "type": "event"
    },
    {
      "anonymous": false,
      "inputs": [
        {
          "indexed": true,
          "internalType": "address",
          "name": "user",
          "type": "address"
        },
        {
          "indexed": true,
          "internalType": "address",
          "name": "tokenIn",
          "type": "address"
        },
        {
          "indexed": true,
          "internalType": "address",
          "name": "tokenOut",
          "type": "address"
        },
        {
          "indexed": false,
          "internalType": "uint256",
          "name": "amountIn",
          "type": "uint256"
        },
        {
          "indexed": false,
          "internalType": "uint256",
          "name": "amountOut",
          "type": "uint256"
        }
      ],
      "name": "Swap",
      "type": "event"
    },
    {
      "inputs": [],
      "name": "MINIMUM_LIQUIDITY",
      "outputs": [
        {
          "internalType": "uint256",
          "name": "",
          "type": "uint256"
        }
      ],
      "stateMutability": "view",
      "type": "function"
    },
    {
      "inputs": [
        {
          "internalType": "address",
          "name": "token0",
          "type": "address"
        },
        {
          "internalType": "address",
          "name": "token1",
          "type": "address"
        },
        {
          "internalType": "uint256",
          "name": "amount0Desired",
          "type": "uint256"
        },
        {
          "internalType": "uint256",
          "name": "amount1Desired",
          "type": "uint256"
        }
      ],
      "name": "addLiquidity",
      "outputs": [
        {
          "internalType": "uint256",
          "name": "amount0",
          "type": "uint256"
        },
        {
          "internalType": "uint256",
          "name": "amount1",
          "type": "uint256"
        },
        {
          "internalType": "uint256",
          "name": "liquidity",
          "type": "uint256"
        }
      ],
      "stateMutability": "nonpayable",
      "type": "function"
    },
    {
      "inputs": [
        {
          "internalType": "address",
          "name": "token0",
          "type": "address"
        },
        {
          "internalType": "address",
          "name": "token1",
          "type": "address"
        }
      ],
      "name": "createPool",
      "outputs": [],
      "stateMutability": "nonpayable",
      "type": "function"
    },
    {
      "inputs": [],
      "name": "feePercentage",
      "outputs": [
        {
          "internalType": "uint256",
          "name": "",
          "type": "uint256"
        }
      ],
      "stateMutability": "view",
      "type": "function"
    },
    {
      "inputs": [
        {
          "internalType": "uint256",
          "name": "amountIn",
          "type": "uint256"
        },
        {
          "internalType": "uint256",
          "name": "reserveIn",
          "type": "uint256"
        },
        {
          "internalType": "uint256",
          "name": "reserveOut",
          "type": "uint256"
        }
      ],
      "name": "getAmountOut",
      "outputs": [
        {
          "internalType": "uint256",
          "name": "",
          "type": "uint256"
        }
      ],
      "stateMutability": "pure",
      "type": "function"
    },
    {
      "inputs": [
        {
          "internalType": "address",
          "name": "token0",
          "type": "address"
        },
        {
          "internalType": "address",
          "name": "token1",
          "type": "address"
        }
      ],
      "name": "getPoolInfo",
      "outputs": [
        {
          "internalType": "uint256",
          "name": "reserve0",
          "type": "uint256"
        },
        {
          "internalType": "uint256",
          "name": "reserve1",
          "type": "uint256"
        },
        {
          "internalType": "uint256",
          "name": "totalLiquidity",
          "type": "uint256"
        }
      ],
      "stateMutability": "view",
      "type": "function"
    },
    {
      "inputs": [
        {
          "internalType": "address",
          "name": "user",
          "type": "address"
        },
        {
          "internalType": "address",
          "name": "token0",
          "type": "address"
        },
        {
          "internalType": "address",
          "name": "token1",
          "type": "address"
        }
      ],
      "name": "getUserLiquidity",
      "outputs": [
        {
          "internalType": "uint256",
          "name": "",
          "type": "uint256"
        }
      ],
      "stateMutability": "view",
      "type": "function"
    },
    {
      "inputs": [],
      "name": "owner",
      "outputs": [
        {
          "internalType": "address",
          "name": "",
          "type": "address"
        }
      ],
      "stateMutability": "view",
      "type": "function"
    },
    {
      "inputs": [
        {
          "internalType": "address",
          "name": "",
          "type": "address"
        },
        {
          "internalType": "address",
          "name": "",
          "type": "address"
        }
      ],
      "name": "poolExists",
      "outputs": [
        {
          "internalType": "bool",
          "name": "",
          "type": "bool"
        }
      ],
      "stateMutability": "view",
      "type": "function"
    },
    {
      "inputs": [
        {
          "internalType": "address",
          "name": "",
          "type": "address"
        },
        {
          "internalType": "address",
          "name": "",
          "type": "address"
        }
      ],
      "name": "pools",
      "outputs": [
        {
          "internalType": "uint256",
          "name": "reserve0",
          "type": "uint256"
        },
        {
          "internalType": "uint256",
          "name": "reserve1",
          "type": "uint256"
        },
        {
          "internalType": "uint256",
          "name": "totalLiquidity",
          "type": "uint256"
        }
      ],
      "stateMutability": "view",
      "type": "function"
    },
    {
      "inputs": [
        {
          "internalType": "uint256",
          "name": "amountA",
          "type": "uint256"
        },
        {
          "internalType": "uint256",
          "name": "reserveA",
          "type": "uint256"
        },
        {
          "internalType": "uint256",
          "name": "reserveB",
          "type": "uint256"
        }
      ],
      "name": "quote",
      "outputs": [
        {
          "internalType": "uint256",
          "name": "",
          "type": "uint256"
        }
      ],
      "stateMutability": "pure",
      "type": "function"
    },
    {
      "inputs": [
        {
          "internalType": "address",
          "name": "token0",
          "type": "address"
        },
        {
          "internalType": "address",
          "name": "token1",
          "type": "address"
        },
        {
          "internalType": "uint256",
          "name": "liquidity",
          "type": "uint256"
        }
      ],
      "name": "removeLiquidity",
      "outputs": [
        {
          "internalType": "uint256",
          "name": "amount0",
          "type": "uint256"
        },
        {
          "internalType": "uint256",
          "name": "amount1",
          "type": "uint256"
        }
      ],
      "stateMutability": "nonpayable",
      "type": "function"
    },
    {
      "inputs": [],
      "name": "renounceOwnership",
      "outputs": [],
      "stateMutability": "nonpayable",
      "type": "function"
    },
    {
      "inputs": [
        {
          "internalType": "uint256",
          "name": "newFee",
          "type": "uint256"
        }
      ],
      "name": "setFeePercentage",
      "outputs": [],
      "stateMutability": "nonpayable",
      "type": "function"
    },
    {
      "inputs": [
        {
          "internalType": "address",
          "name": "tokenIn",
          "type": "address"
        },
        {
          "internalType": "address",
          "name": "tokenOut",
          "type": "address"
        },
        {
          "internalType": "uint256",
          "name": "amountIn",
          "type": "uint256"
        },
        {
          "internalType": "uint256",
          "name": "minAmountOut",
          "type": "uint256"
        }
      ],
      "name": "swap",
      "outputs": [
        {
          "internalType": "uint256",
          "name": "amountOut",
          "type": "uint256"
        }
      ],
      "stateMutability": "nonpayable",
      "type": "function"
    },
    {
      "inputs": [
        {
          "internalType": "address",
          "name": "newOwner",
          "type": "address"
        }
      ],
      "name": "transferOwnership",
      "outputs": [],
      "stateMutability": "nonpayable",
      "type": "function"
    }
  ],
  "bytecode": "0x6080604052601e60045534801561001557600080fd5b50600160005561002433610029565b61007b565b600180546001600160a01b038381166001600160a01b0319831681179093556040519116919082907f8be0079c531659141344cd1fd0a4f28419497f9722a3daafe3b4186f6b6457e090600090a35050565b6117708061008a6000396000f3fe608060405234801561001057600080fd5b50600436106101005760003560e01c8063ad615dec11610097578063d752fab211610066578063d752fab214610250578063e343361514610278578063f2fde38b1461028b578063fe0291561461029e57600080fd5b8063ad615dec1461020e578063ae06c1b714610221578063ba9a7a5614610234578063cf6c62ea1461023d57600080fd5b80638da5cb5b116100d35780638da5cb5b146101a1578063901754d7146101bc5780639c8d8cf1146101f2578063a001ecdd1461020557600080fd5b8063054d50d414610105578063486e51f41461012b578063552e4e8414610159578063715018a614610197575b600080fd5b610118610113366004611461565b6102b1565b6040519081526020015b60405180910390f35b61013e6101393660046114a4565b610363565b60408051938452602084019290925290820152606001610122565b6101876101673660046114a4565b600360209081526000928352604080842090915290825290205460ff1681565b6040519015158152602001610122565b61019f6103d1565b005b6001546040516001600160a01b039091168152602001610122565b61013e6101ca3660046114a4565b6002602081815260009384526040808520909152918352912080546001820154919092015483565b6101186102003660046114d7565b6103e5565b61011860045481565b61011861021c366004611461565b61044f565b61019f61022f36600461151a565b6104df565b6101186103e881565b61013e61024b366004611533565b61052d565b61026361025e366004611575565b6108c3565b60408051928352602083019190915201610122565b61019f6102863660046114a4565b610b77565b61019f6102993660046115b1565b610d1c565b6101186102ac366004611533565b610d95565b60008084116103075760405162461bcd60e51b815260206004820152601960248201527f496e73756666696369656e7420696e70757420616d6f756e740000000000000060448201526064015b60405180910390fd5b6000831180156103175750600082115b6103335760405162461bcd60e51b81526004016102fe906115cc565b600061033f8386611612565b9050600061034d8686611629565b9050610359818361163c565b9695505050505050565b6000806000806000856001600160a01b0316876001600160a01b03161061038b57858761038e565b86865b6001600160a01b03918216600090815260026020818152604080842095909416835293909352208054600182015491909201549196509450925050509250925092565b6103d9611034565b6103e3600061108e565b565b6000806000836001600160a01b0316856001600160a01b03161061040a57838561040d565b84845b6001600160a01b0391821660009081526002602090815260408083209385168352928152828220938a1682526003909301909252902054925050509392505050565b60008084116104965760405162461bcd60e51b8152602060048201526013602482015272125b9cdd59999a58da595b9d08185b5bdd5b9d606a1b60448201526064016102fe565b6000831180156104a65750600082115b6104c25760405162461bcd60e51b81526004016102fe906115cc565b826104cd8386611612565b6104d7919061163c565b949350505050565b6104e7611034565b6103e88111156105285760405162461bcd60e51b815260206004820152600c60248201526b08ccaca40e8dede40d0d2ced60a31b60448201526064016102fe565b600455565b600080600061053a6110e0565b600080876001600160a01b0316896001600160a01b03161061055d578789610560565b88885b6001600160a01b03808316600090815260036020908152604080832093851683529290522054919350915060ff166105aa5760405162461bcd60e51b81526004016102fe9061165e565b6001600160a01b03808316600090815260026020908152604080832093851683529290522080541580156105e057506001810154155b15610619578795508694506103e86106006105fb8789611612565b611139565b61060a919061168b565b6103e8600283015593506106ec565b600061062e898360000154846001015461044f565b9050878111610642578896508095506106a5565b6000610657898460010154856000015461044f565b90508981111561069f5760405162461bcd60e51b8152602060048201526013602482015272125b9cdd59999a58da595b9d08185b5bdd5b9d606a1b60448201526064016102fe565b96508795505b815460028301546106e891906106bb908a611612565b6106c5919061163c565b600184015460028501546106d9908a611612565b6106e3919061163c565b6111a9565b9450505b6000841161073c5760405162461bcd60e51b815260206004820152601d60248201527f496e73756666696369656e74206c6971756964697479206d696e74656400000060448201526064016102fe565b61077433308b6001600160a01b03168d6001600160a01b0316106107605787610762565b885b6001600160a01b0387169291906111c3565b6107ac33308b6001600160a01b03168d6001600160a01b031610610798578861079a565b875b6001600160a01b0386169291906111c3565b886001600160a01b03168a6001600160a01b0316106107cb57846107cd565b855b8160000160008282546107e09190611629565b90915550506001600160a01b03808a16908b16106107fe5785610800565b845b8160010160008282546108139190611629565b925050819055508381600201600082825461082e9190611629565b909155505033600090815260038201602052604081208054869290610854908490611629565b909155505060408051878152602081018790529081018590526001600160a01b03808416919085169033907f43c967b388d3a4ccad3f7ab80167852e322e5a3fde9893f530252281b2ae8b709060600160405180910390a45050506108b96001600055565b9450945094915050565b6000806108ce6110e0565b600080856001600160a01b0316876001600160a01b0316106108f15785876108f4565b86865b6001600160a01b03808316600090815260036020908152604080832093851683529290522054919350915060ff1661093e5760405162461bcd60e51b81526004016102fe9061165e565b6001600160a01b038083166000908152600260209081526040808320938516835292815282822033835260038101909152919020548611156109925760405162461bcd60e51b81526004016102fe906115cc565b600281015481546109a39088611612565b6109ad919061163c565b945080600201548160010154876109c49190611612565b6109ce919061163c565b93506000851180156109e05750600084115b610a2c5760405162461bcd60e51b815260206004820152601d60248201527f496e73756666696369656e74206c6971756964697479206275726e656400000060448201526064016102fe565b33600090815260038201602052604081208054889290610a4d90849061168b565b9250508190555085816002016000828254610a68919061168b565b9091555050805485908290600090610a8190849061168b565b9250508190555083816001016000828254610a9c919061168b565b92505081905550610ad933886001600160a01b03168a6001600160a01b031610610ac65785610ac8565b865b6001600160a01b0386169190611234565b610b0f33886001600160a01b03168a6001600160a01b031610610afc5786610afe565b855b6001600160a01b0385169190611234565b60408051868152602081018690529081018790526001600160a01b03808416919085169033907fd765e08eef31c0983ecca03ecd166297ac485ecd5dd69e291c848f0a020333c19060600160405180910390a4505050610b6f6001600055565b935093915050565b806001600160a01b0316826001600160a01b031603610bcb5760405162461bcd60e51b815260206004820152601060248201526f4964656e746963616c20746f6b656e7360801b60448201526064016102fe565b6001600160a01b03821615801590610beb57506001600160a01b03811615155b610c265760405162461bcd60e51b815260206004820152600c60248201526b5a65726f206164647265737360a01b60448201526064016102fe565b600080826001600160a01b0316846001600160a01b031610610c49578284610c4c565b83835b6001600160a01b03808316600090815260036020908152604080832093851683529290522054919350915060ff1615610cbd5760405162461bcd60e51b8152602060048201526013602482015272506f6f6c20616c72656164792065786973747360681b60448201526064016102fe565b6001600160a01b03808316600081815260036020908152604080832094861680845294909152808220805460ff19166001179055517f4f2ce4e40f623ca765fc0167a25cb7842ceaafb8d82d3dec26ca0d0e0d2d48969190a350505050565b610d24611034565b6001600160a01b038116610d895760405162461bcd60e51b815260206004820152602660248201527f4f776e61626c653a206e6577206f776e657220697320746865207a65726f206160448201526564647265737360d01b60648201526084016102fe565b610d928161108e565b50565b6000610d9f6110e0565b836001600160a01b0316856001600160a01b031603610ded5760405162461bcd60e51b815260206004820152600a60248201526929b0b6b2903a37b5b2b760b11b60448201526064016102fe565b600080856001600160a01b0316876001600160a01b031610610e10578587610e13565b86865b6001600160a01b03808316600090815260036020908152604080832093851683529290522054919350915060ff16610e5d5760405162461bcd60e51b81526004016102fe9061165e565b6001600160a01b03808316600081815260026020908152604080832086861684529091528120928a169091149081610e99578260010154610e9c565b82545b9050600082610eac578354610eb2565b83600101545b90506000612710600454612710610ec9919061168b565b610ed3908c611612565b610edd919061163c565b9050610eea8184846102b1565b975088881015610f3c5760405162461bcd60e51b815260206004820152601a60248201527f496e73756666696369656e74206f757470757420616d6f756e7400000000000060448201526064016102fe565b610f516001600160a01b038d1633308d6111c3565b610f656001600160a01b038c16338a611234565b8315610fa55789856000016000828254610f7f9190611629565b9250508190555087856001016000828254610f9a919061168b565b90915550610fd89050565b89856001016000828254610fb99190611629565b9091555050845488908690600090610fd290849061168b565b90915550505b604080518b8152602081018a90526001600160a01b03808e1692908f169133917fcd3829a3813dc3cdd188fd3d01dcf3268c16be2fdd2dd21d0665418816e46062910160405180910390a4505050505050506104d76001600055565b6001546001600160a01b031633146103e35760405162461bcd60e51b815260206004820181905260248201527f4f776e61626c653a2063616c6c6572206973206e6f7420746865206f776e657260448201526064016102fe565b600180546001600160a01b038381166001600160a01b0319831681179093556040519116919082907f8be0079c531659141344cd1fd0a4f28419497f9722a3daafe3b4186f6b6457e090600090a35050565b6002600054036111325760405162461bcd60e51b815260206004820152601f60248201527f5265656e7472616e637947756172643a207265656e7472616e742063616c6c0060448201526064016102fe565b6002600055565b6000600382111561119a575080600061115360028361163c565b61115e906001611629565b90505b8181101561119457905080600281611179818661163c565b6111839190611629565b61118d919061163c565b9050611161565b50919050565b81156111a4575060015b919050565b60008183106111b857816111ba565b825b90505b92915050565b6040516001600160a01b038085166024830152831660448201526064810182905261122e9085906323b872dd60e01b906084015b60408051601f198184030181529190526020810180516001600160e01b03166001600160e01b031990931692909217909152611269565b50505050565b6040516001600160a01b03831660248201526044810182905261126490849063a9059cbb60e01b906064016111f7565b505050565b60006112be826040518060400160405280602081526020017f5361666545524332303a206c6f772d6c6576656c2063616c6c206661696c6564815250856001600160a01b031661133e9092919063ffffffff16565b90508051600014806112df5750808060200190518101906112df919061169e565b6112645760405162461bcd60e51b815260206004820152602a60248201527f5361666545524332303a204552433230206f7065726174696f6e20646964206e6044820152691bdd081cdd58d8d9595960b21b60648201526084016102fe565b60606104d7848460008585600080866001600160a01b0316858760405161136591906116eb565b60006040518083038185875af1925050503d80600081146113a2576040519150601f19603f3d011682016040523d82523d6000602084013e6113a7565b606091505b50915091506113b8878383876113c3565b979650505050505050565b6060831561143257825160000361142b576001600160a01b0385163b61142b5760405162461bcd60e51b815260206004820152601d60248201527f416464726573733a2063616c6c20746f206e6f6e2d636f6e747261637400000060448201526064016102fe565b50816104d7565b6104d783838151156114475781518083602001fd5b8060405162461bcd60e51b81526004016102fe9190611707565b60008060006060848603121561147657600080fd5b505081359360208301359350604090920135919050565b80356001600160a01b03811681146111a457600080fd5b600080604083850312156114b757600080fd5b6114c08361148d565b91506114ce6020840161148d565b90509250929050565b6000806000606084860312156114ec57600080fd5b6114f58461148d565b92506115036020850161148d565b91506115116040850161148d565b90509250925092565b60006020828403121561152c57600080fd5b5035919050565b6000806000806080858703121561154957600080fd5b6115528561148d565b93506115606020860161148d565b93969395505050506040820135916060013590565b60008060006060848603121561158a57600080fd5b6115938461148d565b92506115a16020850161148d565b9150604084013590509250925092565b6000602082840312156115c357600080fd5b6111ba8261148d565b602080825260169082015275496e73756666696369656e74206c697175696469747960501b604082015260600190565b634e487b7160e01b600052601160045260246000fd5b80820281158282048414176111bd576111bd6115fc565b808201808211156111bd576111bd6115fc565b60008261165957634e487b7160e01b600052601260045260246000fd5b500490565b602080825260139082015272141bdbdb08191bd95cc81b9bdd08195e1a5cdd606a1b604082015260600190565b818103818111156111bd576111bd6115fc565b6000602082840312156116b057600080fd5b815180151581146116c057600080fd5b9392505050565b60005b838110156116e25781810151838201526020016116ca565b50506000910152565b600082516116fd8184602087016116c7565b9190910192915050565b60208152600082518060208401526117268160408501602087016116c7565b601f01601f1916919091016040019291505056fea26469706673582212202ab67a01719f5d8e3b064f52a2f961b93b3133491d89794fbb983969857651b664736f6c63430008130033",
  "linkReferences": {},
  "deployedLinkReferences": {}
}